:0E01AF00EFDFBF7FC0F9A4B0999282F8809074
:100181001200A88E088F097FC812019D850990E58C
:0C01910008F5A07FD27E0412005880E424
:040058008E0A8F0B72
:10005C00E4F50CE50C9001AF93F590AE0AAF0B7C78
:10006C00007D0A12000374B32DF58274013CF583F4
:10007C00E493F5A0E50CB40202C2A7AE0AAF0B7C68
:10008C00007D0A1200038E0A8F0B7F0112019D75F1
:0B009C00A0FF050CE50CC3940440B865
:0100A7002236
:10019D00AD071FED600BE4FEEEC3947B50F20E80B5
:0101AD00F75A
:0101AE00222E
:10015500D2B400C2B4E4F50D050DE50DB4C8F9D26D
:10016500B4E4F50D050DE50DB40FF9A2B49200E464
:0B017500F50D050DE50DB4C8F9A20062
:01018000225C
:1000F100E4FED2B400C2B400EF1392B4E4F50D05EE
:100101000DE50DB40FF9D2B4E4F50D050DE50DB40F
:1001110001F9EFC313FF0EBE08D8E4F50D050DE597
:040121000DB404F91C
:0101250022B7
:10012600E4FED2B400C2B400D2B4E4F50D050DE588
:100136000DB402F9EFC313FF30B405430780800006
:0E014600E4F50D050DE50DB40FF90EBE08D45D
:010154002288
:1000A8001201557FCC1200F17F441200F17FC81273
:1000B800019D1201557FCC1200F17FBE1200F11292
:1000C8000126AD07120126EFFE7C00E42DFFEC3E71
:1000D800FED3EF9400EE9480400EEFF4FFEEF4FEB2
:0800E800EF2401FFE43EFE22BB
:0100F00022ED
:030000000201BD3D
:0C01BD00787FE4F6D8FD758120020181F6
:10000300BC000BBE0029EF8DF084FFADF022E4CCE1
:10001300F875F008EF2FFFEE33FEEC33FCEE9DECAA
:10002300984005FCEE9DFE0FD5F0E9E4CEFD22EDF0
:10003300F8F5F0EE8420D21CFEADF075F008EF2F3A
:10004300FFED33FD4007985006D5F0F222C398FD2B
:050053000FD5F0EA22C8
:00000001FF
