:0602D20000000000002204
:10023A00C2B4D2B21202D2D2B41202D2C2B21202E0
:04024A00D2C2B42246
:10027500C2B21202D2D2B41202D2D2B21202D2C287
:02028500B422A1
:100003007E08AD061EED6014EF3392B2D2B4120235
:0C001300D2C2B4EF25E0FF1202D280E65A
:01001F0022BE
:1001FF007F08E4FEAD071FED6018D2B2D2B4120231
:10020F00D2EE25E0FEA2B2E4334206C2B41202D20D
:04021F0080E2AF06C4
:0102230022B8
:0C02C600A20292B2D2B41202D2C2B42240
:0F029900D2B2D2B41202D2A2B29203C2B4A20362
:0102A8002233
:10022400EF1FAA0670011E4A600BE4FDEDC394782B
:0502340050EE0D80F703
:0102390022A2
:1001CB008F0C8C0D8D0E12023A7FA01200031202BF
:1001DB0099E50DFF120003120299AF0E12000312E4
:1001EB000299AF0C1200031202991202757F0A7E5C
:0401FB0000020224D8
:020195008F0CCD
:1001970012023A7FA01200031202997F0012000395
:1001A700120299AF0C12000312029912023A7FA1B0
:1001B7001200031202991201FF8F0D120299120207
:0301C70075AF0D04
:0101CA002212
:10015D00120262E4F508F509AF09120195750A005E
:10016D008F0BAF0B1202B9EF60F8E50B04FFAD0971
:10017D00AC081201CB0509E50970020508C3940FFF
:08018D00E508940040D280FE59
:10024E00C0F9A4B0999282F880908883C6A1868E58
:04025E00EFDFBF7F90
:10028700AD071FED600BE4FEEEC3943250F20E8013
:01029700F76F
:010298002243
:0400B2008E0F8F100E
:1000B600D3E510940FE50F942740037F0022E4FB5D
:1000C600AA90EB90025E935290AE0FAF107C007D2B
:1000D6000A120108744E2DF58274023CF583E493EE
:1000E600F5A0AE0FAF107C007D0A1201088E0F8FAF
:1000F600107F0A1202878A9075A0FF0BBB04C17F8E
:0101060001F7
:0101070022D5
:0402D800C101C1801F
:10026200759850758920758DFD758BFDD28ED2AC37
:03027200D2AF22E6
:0D02B9003000078F99C2007F01227F0022D4
:030023000202A92D
:1002A900309808C298859911D20132C299D2003288
:03000000020026D5
:0C002600787FE4F6D8FD75812002006DA3
:10010800BC000BBE0029EF8DF084FFADF022E4CCDB
:10011800F875F008EF2FFFEE33FEEC33FCEE9DECA4
:10012800984005FCEE9DFE0FD5F0E9E4CEFD22EDEA
:10013800F8F5F0EE8420D21CFEADF075F008EF2F34
:10014800FFED33FD4007985006D5F0F222C398FD25
:050158000FD5F0EA22C2
:1000320002015DE493A3F8E493A34003F68001F286
:1000420008DFF48029E493A3F85407240CC8C333CF
:10005200C4540F4420C8834004F456800146F6DF9E
:10006200E4800B01020408102040809002D8E47E54
:10007200019360BCA3FF543F30E509541FFEE49393
:10008200A360010ECF54C025E060A840B8E493A35A
:10009200FAE493A3F8E493A3C8C582C8CAC583CA85
:1000A200F0A3C8C582C8CAC583CADFE9DEE780BE3D
:0102DC000021
:00000001FF
