:10009D00FC0CDAF266B6BEE0FEF6EEDEBE7EEDDDFF
:0A00AD00BD7DEBDBBB7BE7D7B77727
:1000B700AD071FED600BE4FEEEC3946450F20E80B3
:0100C700F741
:0100C8002215
:10007300E4F5987F6380131200038F08E4F509E524
:10008300099000A793B50807AF0912004280E8055D
:0A00930009E509C3941040E780DD81
:100003007CFFC292D291C29090FFFF7482F0E4FB16
:100013007401A803088002C333D8FCF490FFFEF0F8
:1000230090FFFDE0F460117F031200B7E0F4600875
:0E003300E0FFA3E05FFC80040BBB04D4AF042D
:01004100229C
:10004200EFD39463502AEF75F00A8490009D93F5E4
:10005200993099FDC299C2A4D2A4EF75F00A84E541
:10006200F090009D93F5993099FDC299C2A4D2A453
:01007200226B
:030000000200C932
:0C00C900787FE4F6D8FD75810902007311
:00000001FF
