:1000C600C0F9A4B0999282F880908883C6A1868EE2
:0400D600EFDFBF7F1A
:1000B000EF1FAA0670011E4A600BE4FDEDC394C851
:0500C00050EE0D80F779
:0100C5002218
:040003008E088F09CB
:10000700D3E509940FE508942740037F0022E4FB1A
:1000170085900AEB9000D6935290AE08AF097C000A
:100027007D0A12005B74C62DF58274003CF583E4EB
:1000370093F5A0AE08AF097C007D0A12005B8E081D
:100047008F097F037E001200B0850A9075A0FF0B11
:03005700BB04BD2A
:01005A002283
:0900E6007FD27E0412000380F7B2
:030000000200DA21
:0C00DA00787FE4F6D8FD75810A0200E68C
:10005B00BC000BBE0029EF8DF084FFADF022E4CC89
:10006B00F875F008EF2FFFEE33FEEC33FCEE9DEC52
:10007B00984005FCEE9DFE0FD5F0E9E4CEFD22ED98
:10008B00F8F5F0EE8420D21CFEADF075F008EF2FE2
:10009B00FFED33FD4007985006D5F0F222C398FDD3
:0500AB000FD5F0EA2270
:00000001FF
