:10015D00EF1FAA0670011E4A600BE4FDEDC394C8A3
:05016D0050EE0D80F7CB
:01017200226A
:1000030012018790010A7420F0A37406F090010A8C
:09001300E0FF7E001200B280F44F
:0801C90090010AE0FF0201BCF5
:04001C00C101C180DD
:10018700759850758920758DFD758BFDD28ED2AC13
:03019700D2AF22C2
:0D01BC003000078F99C2007F01227F0022D2
:030023000201AC2B
:1001AC00309808C298859911D20132C299D2003286
:10017300C0F9A4B0999282F880908883C6A1868E34
:04018300EFDFBF7F6C
:10019A00AD071FED600BE4FEEEC3943250F20E8001
:0101AA00F75D
:0101AB002231
:0400B2008E0F8F100E
:1000B600D3E510940FE50F942740037F0022E4FB5D
:1000C600AA90EB900183935290AE0FAF107C007D07
:1000D6000A12010874732DF58274013CF583E493CA
:1000E600F5A0AE0FAF107C007D0A1201088E0F8FAF
:1000F600107F0A12019A8A9075A0FF0BBB04C17F7C
:0101060001F7
:0101070022D5
:03000000020026D5
:0C002600787FE4F6D8FD75812002006DA3
:10010800BC000BBE0029EF8DF084FFADF022E4CCDB
:10011800F875F008EF2FFFEE33FEEC33FCEE9DECA4
:10012800984005FCEE9DFE0FD5F0E9E4CEFD22EDEA
:10013800F8F5F0EE8420D21CFEADF075F008EF2F34
:10014800FFED33FD4007985006D5F0F222C398FD25
:050158000FD5F0EA22C2
:10003200020003E493A3F8E493A34003F68001F2E1
:1000420008DFF48029E493A3F85407240CC8C333CF
:10005200C4540F4420C8834004F456800146F6DF9E
:10006200E4800B010204081020408090001CE47E12
:10007200019360BCA3FF543F30E509541FFEE49393
:10008200A360010ECF54C025E060A840B8E493A35A
:10009200FAE493A3F8E493A3C8C582C8CAC583CA85
:1000A200F0A3C8C582C8CAC583CADFE9DEE780BE3D
:0100200000DF
:00000001FF
