:0A02F100AE071FEE60030080F72245
:060265008B0D8A0E890FCB
:10026B00C2877F641202F1D2877F021202F12087CC
:10027B002CC2AF3087FD2087FDE4F511120003ABD4
:10028B000DAA0EA90F851182758300EF12011C05B3
:0F029B0011E511C3940540E4D2AF7F01227F002B
:0102AA002231
:10000300E4FDFC3087FD7F021202F1ED25E0FDA245
:0E00130087E43342052087FD0CBC08E7AF05EB
:0100210022BC
:0502FB000001020304F4
:1002AB00EF1FAA0670011E4A600BE4FDEDC39478A4
:0502BB0050EE0D80F77C
:0102C000221B
:10013E0078087C007D007BFF7A0279FB7E007F05CC
:10014E001200F61202C1AF081202E4EF60F8AF0916
:10015E001202E4EF60F8AF0A1202E4EF60F8AF0BA0
:10016E001202E4EF60F8AF0C1202E4EF60F87FD0F9
:10017E007E071202AB6390FF7FA07E0F1202AB7B55
:10018E00007A007908120265EF6036E50825092528
:10019E000A250BFFB50CDEAF081202E4EF60F8AFD4
:1001AE00091202E4EF60F8AF0A1202E4EF60F8AF52
:1001BE000B1202E4EF60F8AF0C1202E4EF70B6809F
:0B01CE00F67FFF1202E4EF70AC80F639
:04030000C101C180F6
:1002C100759850758920758DFD758BFDD28ED2ACD8
:0302D100D2AF2287
:0D02E4003000078F99C2007F01227F0022A9
:030023000202D402
:1002D400309808C298859912D20132C299D200325C
:030000000201D921
:0C01D900787FE4F6D8FD7581200202203A
:10002600E709F608DFFA8046E709F208DFFA803EBC
:1000360088828C83E709F0A3DFFA8032E309F608A9
:10004600DFFA8078E309F208DFFA807088828C8311
:10005600E309F0A3DFFA806489828A83E0A3F608C5
:10006600DFFA805889828A83E0A3F208DFFA804C9F
:1000760080D280FA80C680D4806980F28033801076
:1000860080A680EA809A80A880DA80E280CA8033DF
:1000960089828A83ECFAE493A3C8C582C8CCC58357
:1000A600CCF0A3C8C582C8CCC583CCDFE9DEE78027
:1000B6000D89828A83E493A3F608DFF9ECFAA9F0A6
:1000C600EDFB2289828A83ECFAE0A3C8C582C8CCFC
:1000D600C583CCF0A3C8C582C8CCC583CCDFEADE15
:1000E600E880DB89828A83E493A3F208DFF980CC77
:1000F60088F0EF60010E4E60C388F0ED2402B40470
:100106000050B9F582EB2402B4040050AF23234516
:06011600822390007673C5
:10011C00F8BB010DE58229F582E5833AF583E8F019
:10012C00225006E92582C8F622BBFE05E92582C8C5
:02013C00F222AD
:1001E50002013EE493A3F8E493A34003F68001F2F1
:1001F50008DFF48029E493A3F85407240CC8C3331B
:10020500C4540F4420C8834004F456800146F6DFE9
:10021500E4800B0102040810204080900300E47E76
:10022500019360BCA3FF543F30E509541FFEE493DE
:10023500A360010ECF54C025E060A840B8E493A3A5
:10024500FAE493A3F8E493A3C8C582C8CAC583CAD0
:10025500F0A3C8C582C8CAC583CADFE9DEE780BE88
:0103040000F8
:00000001FF
