:0400E000C101C18019
:10000300E4F5097590AA1200B2D2AF7FAB1200D308
:0C0013003000FDAF0905091200D380F495
:1000B200759850758920758DFD758BFDD28ED2ACE9
:0100C200221B
:0D00D3003000078F99C2007F01227F0022BC
:030023000200C315
:1000C300309808C298859908D20132C299D2003279
:03000000020026D5
:0C002600787FE4F6D8FD75812002006DA3
:10003200020003E493A3F8E493A34003F68001F2E1
:1000420008DFF48029E493A3F85407240CC8C333CF
:10005200C4540F4420C8834004F456800146F6DF9E
:10006200E4800B01020408102040809000E0E47E4E
:10007200019360BCA3FF543F30E509541FFEE49393
:10008200A360010ECF54C025E060A840B8E493A35A
:10009200FAE493A3F8E493A3C8C582C8CAC583CA85
:1000A200F0A3C8C582C8CAC583CADFE9DEE780BE3D
:0100E400001B
:00000001FF
